:100000000C946C000C9494000C9494000C94940048
:100010000C9494000C9494000C9494000C94940010
:100020000C9494000C9494000C9494000C94940000
:100030000C9494000C9494000C9494000C949400F0
:100040000C94DD030C9494000C944D040C94270440
:100050000C9494000C9494000C9494000C949400D0
:100060000C947F040C949400F206F9060507160719
:1000700018071F072B073C07520754070000000012
:10008000240027002A0000000000250028002B0083
:1000900000000000230026002900040404040404D6
:1000A0000404020202020202030303030303010227
:1000B00004081020408001020408102001020408F6
:1000C00010200000000800020100000304070000E7
:1000D000000000000000070D11241FBECFEFD8E084
:1000E000DEBFCDBF11E0A0E0B1E0EAE0FFE102C079
:1000F00005900D92A835B107D9F723E0A8E5B1E046
:1001000001C01D92A632B207E1F710E0CCE6D0E0C4
:1001100004C02197FE010E94640FCB36D107C9F7B6
:100120000E9411090C94830F0C940000833081F01D
:1001300028F4813099F08230A1F008958730A9F039
:100140008830B9F08430D1F4809180008F7D03C075
:10015000809180008F7780938000089584B58F7799
:1001600002C084B58F7D84BD08958091B0008F77E3
:1001700003C08091B0008F7D8093B00008950895F2
:100180000895CF92DF92EF92FF920F931F93CF9338
:10019000DF936C017A018B01C0E0D0E0CE15DF0562
:1001A00081F0D8016D918D01D601ED91FC91019006
:1001B000F081E02DC6010995892B11F02196EECF33
:1001C0007E01C701DF91CF911F910F91FF90EF90BA
:1001D000DF90CF900895FC01538D448D252F30E0A2
:1001E000842F90E0821B930B541710F0CF96089544
:1001F00001970895FC01918D828D981761F0828D91
:10020000DF01A80FB11D5D968C91928D9F5F9F734A
:10021000928F90E008958FEF9FEF0895FC01918DEC
:10022000828D981731F0828DE80FF11D858D90E059
:1002300008958FEF9FEF0895FC01918D228D892FF6
:1002400090E0805C9F4F821B91098F7399270895DE
:1002500084E192E00E941C0121E0892B09F420E056
:10026000822F0895FC01848DDF01A80FB11DA35AD0
:10027000BF4F2C91848D90E001968F739927848FC6
:10028000A689B7892C93A089B1898C9183708064E9
:100290008C93938D848D981306C00288F389E02D8A
:1002A00080818F7D80830895EF92FF920F931F933B
:1002B000CF93DF93EC0181E0888F9B8D8C8D981319
:1002C00005C0E889F989808185FD26C0F62E0B8D51
:1002D00010E00F5F1F4F0F731127E02E8C8DE81277
:1002E0000CC00FB607FCFACFE889F989808185FF39
:1002F000F5CFCE010E943201F1CF8B8DFE01E80FC8
:10030000F11DE35AFF4FF0829FB7F8940B8FEA89F3
:10031000FB89808180620AC09FB7F894EE89FF89CB
:100320006083E889F98980818370806480839FBFBE
:1003300081E090E0DF91CF911F910F91FF90EF90BE
:100340000895CF93DF93EC01888D8823C9F0EA8963
:10035000FB89808185FD05C0A889B9898C9186FDBE
:100360000FC00FB607FCF5CF808185FFF2CFA889BB
:10037000B9898C9185FFEDCFCE010E943201E7CF84
:10038000DF91CF91089580E090E0892B29F00E94C1
:10039000280181110C940000089585ED8093BC0024
:1003A0008091BC0084FDFCCF1092F0010895409133
:1003B0007801262F30E0240F311D21323105DCF485
:1003C0002091F0012430C9F4FC0180E090E0861710
:1003D00058F4309178012191DC01A85ABE4FA30F47
:1003E000B11D2C930196F3CF80917801680F609333
:1003F000780180E0089581E0089582E008950895ED
:10040000E091C8018091C901E81730F4F0E0E855A7
:10041000FE4F808190E008958FEF9FEF08959091B7
:10042000C8018091C901981750F4E92FF0E0E85510
:10043000FE4F208130E09F5F9093C80102C02FEFF4
:100440003FEFC90108958091C90190E02091C80152
:10045000821B91090895CF92DF92EF92FF920F9342
:100460001F93CF93DF937C01CB018A01209113026C
:10047000222389F0EB016B01C40ED51ECC15DD05DE
:1004800069F06991D701ED91FC910190F081E02D27
:10049000C7010995F3CF642F0E94D701C801DF91EE
:1004A000CF911F910F91FF90EF90DF90CF90089523
:1004B000CF93DF931F92CDB7DEB7698320911302EC
:1004C0002223D1F020911102203240F021E030E0CF
:1004D000FC013383228380E090E015C080911202FA
:1004E000E82FF0E0EF50FE4F998190838F5F80936B
:1004F00012028093110205C061E0CE0101960E94B4
:10050000D70181E090E00F90DF91CF910895089599
:1005100080E090E008958F929F92AF92BF92CF9229
:10052000DF92EF92FF920F931F93CF93DF93CDB79C
:10053000DEB762970FB6F894DEBF0FBECDBF8982DB
:100540009A82AB82BC82CD82DE82EF82F8860987F6
:100550001A872B873C874D875E876F87788B898BBF
:100560009A8B682D84E192E00E945401E92C092CB9
:10057000000CFF08692D84E192E00E945401CE0135
:1005800001964C018C01C801881999098E159F05A7
:100590004CF4F801628184E192E00E9454010F5F03
:1005A0001F4FF1CF62960FB6F894DEBF0FBECDBFDE
:1005B000DF91CF911F910F91FF90EF90DF90CF903F
:1005C000BF90AF909F908F9008950E947E0F0F93E1
:1005D0001F93CF93DF938B01EA01BC01990F880B26
:1005E000990B97FF03C00E940B0803C04AE00E94CA
:1005F000CA0784E291E00E94B807C8010E94B807C8
:1006000088E291E00E94B807BE01DD0F880B990BCC
:1006100097FF03C00E940B0803C04AE00E94CA076C
:100620008BE291E0DF91CF911F910F910C94B8076D
:10063000AF92BF92CF92DF92EF92FF920F931F93F0
:10064000CF93DF93EC0141E050E06EE271E088E689
:1006500090E00E94E70281E00E94FD080CEC10E0AF
:1006600098EBE92E90E0F92E24EAC22E20E0D22E5B
:10067000F8018491F701A490F601B490B11005C07F
:1006800081E090E00E942C08F3CF81110E94960037
:10069000EB2DF0E0EE0FFF1FE057FF4FA591B49157
:1006A0008C918A2169F341E050E066E371E08DE6C8
:1006B00090E00E94E70280E090E89093230380930B
:1006C000220382E1FE0111928A95E9F7CE01DF91C2
:1006D000CF911F910F91FF90EF90DF90CF90BF903F
:1006E000AF9008951F93CF93DF93282F30E0F90147
:1006F000EE53FF4F8491F901E255FF4FD491F90178
:10070000E656FF4FC491CC23C1F0162F81110E94F1
:100710009600EC2FF0E0EE0FFF1FEA57FF4FA59178
:10072000B4919FB7F894111104C08C91D095D8233F
:1007300002C0EC91DE2BDC939FBFDF91CF911F9124
:100740000895CF93DF9390E0FC01E255FF4F249191
:10075000FC01E656FF4F8491882361F190E0880FF9
:10076000991FFC01E458FF4FC591D491FC01EA5751
:10077000FF4FA591B491611109C09FB7F89488818A
:10078000209582238883EC912E230BC0623061F484
:100790009FB7F8948881322F309583238883EC911A
:1007A0002E2B2C939FBF06C08FB7F894E8812E2B79
:1007B00028838FBFDF91CF9108951F920F920FB6BC
:1007C0000F9211242F933F938F939F93AF93BF93D7
:1007D0008091A0019091A101A091A201B091A301EB
:1007E00030919F0123E0230F2D3720F40196A11DA6
:1007F000B11D05C026E8230F0296A11DB11D20934F
:100800009F018093A0019093A101A093A201B093B6
:10081000A3018091A4019091A501A091A601B0919E
:10082000A7010196A11DB11D8093A4019093A5017C
:10083000A093A601B093A701BF91AF919F918F9113
:100840003F912F910F900FBE0F901F9018951F9200
:100850000F920FB60F9211242F933F934F935F93F4
:100860006F937F938F939F93AF93BF93EF93FF9378
:1008700084E192E00E943201FF91EF91BF91AF912C
:100880009F918F917F916F915F914F913F912F91A8
:100890000F900FBE0F901F9018951F920F920FB6DA
:1008A0000F9211242F938F939F93EF93FF93E091D7
:1008B0002402F09125028081E0912A02F0912B021E
:1008C00082FD12C0908180912D028F5F8F732091E5
:1008D0002E02821751F0E0912D02F0E0EC5EFD4F08
:1008E000958F80932D0201C08081FF91EF919F91A0
:1008F0008F912F910F900FBE0F901F9018951F9200
:100900000F920FB60F9211242F933F934F935F9343
:100910006F937F938F939F93AF93BF93EF93FF93C7
:100920008091B900887F803609F49CC068F58832D0
:1009300009F45BC090F4803109F454C038F4882382
:1009400009F4F6C0883009F44DC0F6C0883109F4C6
:100950004CC0803209F45DC0EFC0803409F468C037
:1009600048F4803309F455C0883309F0E5C080931A
:10097000EE01D8C0803509F44FC0883509F45DC058
:10098000883409F0D9C0D6C0883909F4C7C0A8F4A2
:10099000883709F467C038F4883609F463C08037B3
:1009A00009F460C0C9C0883809F4B8C0803909F4B6
:1009B0005FC0803809F0C0C05BC0803B09F486C0CE
:1009C00038F4803A09F466C0883A09F47FC0B4C0AC
:1009D000803C09F4A7C0883C09F4A4C0883B09F412
:1009E0008AC0AAC08091CB0110C09091ED01809186
:1009F000EC01981770F5E091ED0181E08E0F809386
:100A0000ED01F0E0E453FE4F80818093BB0085EC64
:100A100086C08093EE018EC0E091ED0181E08E0FE3
:100A20008093ED018091BB00F0E0E453FE4F8083A2
:100A30009091ED018091EC016EC0E091ED0181E0BB
:100A40008E0F8093ED018091BB00F0E0E453FE4FE8
:100A500080838091EF0181116DC081E08093CA0194
:100A600084EA61C083E08093F00110929A01CFCFB5
:100A700080919A01803208F051C0E0919A0181E0A2
:100A80008E0F80939A018091BB00F0E0E658FE4FF4
:100A90008083BDCF85EC8093BC001092F0018091E3
:100AA0009A01803230F4E0919A01F0E0E658FE4F6E
:100AB000108260919A0170E0E0919B01F0919C019D
:100AC0008AE791E0099510929A0136C084E08093FC
:100AD000F0011092790110927801E0919D01F0915E
:100AE0009E01099580917801811105C081E0809374
:100AF000780110925801E091790181E08E0F809386
:100B00007901F0E0E85AFE4F80818093BB0090911C
:100B1000790180917801981708F479CF85E880935E
:100B2000BC000AC085EC8093BC001092F00104C0A8
:100B30001092EE010E94CD01FF91EF91BF91AF9114
:100B40009F918F917F916F915F914F913F912F91E5
:100B50000F900FBE0F901F901895CF93DF93EC016D
:100B600081E08093130287E780932503109212029D
:100B700010921102688181EB92E00E94580220914C
:100B80001102213208F048C08091F0018111FCCFA0
:100B900092E09093F00191E09093EF019FEF90939A
:100BA000EE011092ED012093EC01A1EFB1E0ECEC2D
:100BB000F1E090E0291721F03D9131939F5FFACF4A
:100BC0001092CB019091CB019E6E9093CB019091AE
:100BD000CA01913061F41092CA019091CB019093B7
:100BE000BB009091BC0093FDF8CF95EC01C095EE51
:100BF0009093BC009091F0019230E1F39091EE015E
:100C00009F3F79F08091EE01803241F08091EE01BA
:100C1000803331F084E005C081E003C082E001C090
:100C200083E010921202109211021092130280932C
:100C30002103811153C08091F0018111FCCF81E02B
:100C40008093F0018093EF019FEF9093EE0110925B
:100C5000ED018093EC018093CB018091CB018E6EEE
:100C60008093CB018091CA01813061F41092CA0156
:100C70008091CB018093BB008091BC0083FDF8CFB5
:100C800085EC01C085EE8093BC008091F00181303D
:100C9000E1F38091ED01823018F48091ED0101C003
:100CA00082E0ACECB1E0E8EAF1E090E0981721F0E6
:100CB0002D9121939F5FFACF1092C8018093C901B3
:100CC0008230F1F781EB92E00E940F02888381EB82
:100CD00092E00E940F02898381E001C080E0DF91F1
:100CE000CF910895CF93DF93EC018091C50290914D
:100CF000C602029709F5C130D10569F024F42097A6
:100D0000D9F460E009C0C230D10561F0C330D1052B
:100D100099F460E008C061E08091C9020E9472030A
:100D200061E006C061E08091C9020E94720360E048
:100D30008091CB020E9472038091C5029091C602FD
:100D4000049709F03FC0C130D105B9F04CF42097A9
:100D5000C9F561E08091C9020E94720360E013C08E
:100D6000C230D105D9F0C330D10561F561E0809181
:100D7000C9020E94720360E017C060E08091C9025E
:100D80000E94720361E08091CB020E94720361E0D5
:100D90008091CD020E94720360E010C060E08091FB
:100DA000C9020E94720361E08091CB020E9472032B
:100DB00060E08091CD020E94720361E08091CF02D9
:100DC0000E9472038091C5029091C602059709F0B6
:100DD00086C0CA30D10508F082C0FE01EC5CFF4F2E
:100DE0000C94640F60E08091C9020E94720361E07C
:100DF00061C060E08091C9020E94720361E080914D
:100E0000CB020E94720360E05AC060E08091C90288
:100E10000E94720361E08091CB020E94720360E045
:100E20008091CD020E94720361E04EC060E001C07B
:100E300061E08091C9020E94720361E006C061E036
:100E40008091C9020E94720360E08091CB020E94EF
:100E5000720360E00BC061E08091C9020E947203DE
:100E600060E08091CB020E94720361E08091CD022C
:100E70000E94720361E010C061E08091C9020E948B
:100E8000720360E08091CB020E94720361E0809166
:100E9000CD020E94720360E08091CF020E94720333
:100EA00060E017C061E001C060E08091C9020E946B
:100EB000720360E08091CB020E94720361E0809136
:100EC000CD020E94720360E08091CF020E94720303
:100ED00061E08091D102DF91CF910C947203DF9198
:100EE000CF9108950F931F93CF93DF9300D0CDB789
:100EF000DEB78B018983CE0101960E94AD05882360
:100F000051F089819A81982789279827F801918340
:100F1000808381E003C0F801118210820F900F904E
:100F2000DF91CF911F910F9108950F931F93CF934E
:100F3000DF9300D0CDB7DEB78B018983CE01019658
:100F40000E94AD05882351F089819A8198278927CD
:100F50009827F8019183808381E003C0F801118212
:100F600010820F900F90DF91CF911F910F910895F4
:100F7000009769F0FC0101900020E9F73197AF017B
:100F8000481B590BBC0184E192E00C94C10080E045
:100F900090E008958F929F92AF92BF920F931F930C
:100FA000CF93DF93CDB7DEB7A1970FB6F894DEBF2E
:100FB0000FBECDBF19A2423008F44AE08E010F5D8A
:100FC0001F4F842E912CA12CB12CA50194010E94BD
:100FD000230FE62FB901CA0101501109EA3014F4B8
:100FE000E05D01C0E95CD801EC93232B242B252B79
:100FF00061F7C8010E94B807A1960FB6F894DEBF4A
:101000000FBECDBFDF91CF911F910F91BF90AF90D9
:101010009F908F900895CF92DF92EF92FF92CF939F
:10102000DF936B017C016DE284E192E00E94540148
:10103000EC0166277727CB016C197D098E099F0982
:101040004AE00E94CA078C0F9D1FDF91CF91FF904D
:10105000EF90DF90CF9008958F929F92AF92BF92C2
:10106000EF92FF920F931F93CF93DF93EC0197FFC3
:1010700004C0CC27DD27C81BD90B181619063CF471
:1010800081E090E09093BE028093BD0206C0892B60
:1010900021F01092BE021092BD0204E010E05AE06E
:1010A000E52EF12C209709F489C03FB7F894809180
:1010B000A4019091A501A091A601B091A70126B528
:1010C000A89B05C02F3F19F00196A11DB11D3FBF80
:1010D000BA2FA92F982F8827820F911DA11DB11D0E
:1010E00042E0880F991FAA1FBB1F4A95D1F7409174
:1010F000D3025091D4026091D5027091D6024C0176
:101100005D01841A950AA60AB70A4091BF02509160
:10111000C0026091C1027091C20284169506A606B3
:10112000B70608F4BFCF8093D3029093D402A09364
:10113000D502B093D6022091BD023091BE028091BB
:10114000C7029091C8022130310589F4019690932D
:10115000C8028093C7022091C3023091C402821753
:101160009307C1F41092C8021092C70213C0892BD2
:1011700041F48091C3029091C4029093C80280937D
:10118000C7028091C7029091C80201979093C8024C
:101190008093C70221972091C5023091C6028091A9
:1011A000C7029091C8022530310511F4B70101C082
:1011B000B8010E940F0F0E94720674CFDF91CF9189
:1011C0001F910F91FF90EF90BF90AF909F908F90E5
:1011D00008950F931F93CF93DF938C01C2E2D3E066
:1011E00088819981801B910B0E942C0819830883A8
:1011F000DF91CF911F910F910895CF93C82F682F42
:1012000083E00E9472036C2F8BE00E947203C093F4
:101210002403C11104C01092230310922203CF9122
:101220000895CF93DF93CDB7DEB7C055D1090FB680
:10123000F894DEBF0FBECDBF789484B5826084BDC4
:1012400084B5816084BD85B5826085BD85B58160CA
:1012500085BD80916E00816080936E001092810048
:101260008091810082608093810080918100816003
:1012700080938100809180008160809380008091C4
:10128000B10084608093B1008091B0008160809350
:10129000B00080917A00846080937A0080917A0017
:1012A000826080937A0080917A00816080937A00D6
:1012B00080917A00806880937A001092C100E0915A
:1012C0002402F091250282E08083E0912002F091D7
:1012D00021021082E0912202F09123028FEC8083A0
:1012E00010922C02E0912802F091290286E080837E
:1012F000E0912602F0912702808180618083E09155
:101300002602F0912702808188608083E091260286
:10131000F0912702808180688083E0912602F0911D
:10132000270280818F7D808361E083E00E94A1039A
:1013300061E08BE00E94A10361E089E00E94A103CB
:1013400061E088E00E94A10360E089E00E947203EE
:1013500060E088E00E94720360E083E00E94720314
:1013600060E08BE00E947203109224032091C3027C
:101370003091C402032E000C440B550B60E077E85B
:1013800083E993E00E94450FCA01B9012CE330E0E4
:1013900040E050E00E94450F2093BF023093C0020E
:1013A0004093C1025093C20280E00E94FD08109257
:1013B00023031092220361E087E00E94A10361E011
:1013C00084E00E94A10361E085E00E94A10361E046
:1013D00086E00E94A10361E087E00E94720361E061
:1013E00085E00E94720361E084E00E94720361E084
:1013F00087E00E94720361E084E00E94720361E072
:1014000085E00E94720361E086E00E947203109200
:10141000C8011092C901109212021092110210928A
:10142000F00181E08093EF011092CA0161E082E156
:101430000E94720361E083E10E9472038091B9000F
:101440008E7F8093B9008091B9008D7F8093B90021
:1014500088E48093B80085E48093BC008FEB90E033
:1014600090939E0180939D0180EC90E090939C016D
:1014700080939B0167ED72E08AEA0E9472078823DD
:1014800009F447C069ED72E08CEA0E947207882374
:1014900009F43FC06BED72E08EEA0E947207882368
:1014A000C1F167EE72E080EB0E949507882389F115
:1014B00069EE72E082EB0E949507882351F16BEE92
:1014C00072E084EB0E949507882319F16DED72E0BC
:1014D00086EB0E9472078823E1F06FED72E088EBE3
:1014E0000E9472078823A9F061EE72E08AEB0E94E5
:1014F0007207882371F063EE72E08CEB0E94720732
:10150000882339F065EE72E08EEB0E94720781113C
:1015100061C162E08AE00E94A10341E050E06EE315
:1015200071E08EE590E00E94E702CE0101961C0179
:101530000E941803FE0173962B96FFAFEEAF2B9718
:10154000CE0185962D969FAF8EAF2D9784E192E0C8
:101550000E941C0102970CF43AC184E192E00E94BF
:10156000FA00182F84E192E00E94FA00143009F486
:1015700053C0183009F471C0123009F028C1882313
:1015800049F1CE01C7960E9418038FA898ACA9AC68
:10159000BAACCBACDCACEDACFEAC0FAD21961FAD64
:1015A000219722962FAD229723963FAD239724961D
:1015B0004FAD249725965FAD259726966FAD26975C
:1015C00027967FAD279728968FAD289729969FADB0
:1015D0002997FBC080E00E94FD081092230310921F
:1015E000220382E12D96EEADFFAD2D9711928A95E3
:1015F000E9F78DA09EA0AFA0B8A4C9A4DAA4EBA47B
:10160000FCA40DA51EA52FA538A949A95AA96BA907
:101610007CA98DA99EA9D9C061E0811160E086E016
:101620000E94720382E12B96EEADFFAD2B971192D3
:101630008A95E9F78B889C88AD88BE88CF88D88C3E
:10164000E98CFA8C0B8D1C8D2D8D3E8D4F8D58A104
:1016500069A17AA18BA19CA1B8C0FEE18F9FB001C6
:101660001124072E000C880B990B0E94160E6B019B
:101670007C0120E030E040E05FE30E94A20E0E9487
:10168000DE0D2B013C012DEC3CEC4CEC5EE3C70184
:10169000B6010E94A20E0E94DE0D61966CAF7DAF76
:1016A0008EAF9FAF61972DEC3CEC4CE45FE3C7013C
:1016B000B6010E94A20E0E94DE0D4B015C0126E6DF
:1016C00036E646E85FE3C701B6010E94A20E0E941B
:1016D000DE0D6B017C01A20164E471E086EB90E019
:1016E0000E94E7022F964EAD5FAD2F9769E471E03F
:1016F00087EB90E00E94E702A4016EE471E088EBC2
:1017000090E00E94E702A60163E571E089EB90E0BA
:101710000E94E70280912403882341F082E1F101D5
:1017200011928A95E9F78FEF89833DC081E00E948D
:10173000FD0860E087E00E94720360E084E00E94A0
:101740007203C2010E94E90861E087E00E9472030F
:101750002F968EAD9FAD2F970E94E908C4010E947D
:10176000E90860E085E00E947203C6010E94E90872
:1017700061E084E00E947203C4010E94E90861E014
:1017800085E00E94720380E090E00E94E90880E01A
:1017900090E00E94E90880E00E94FD0882E1F101EA
:1017A00011928A95E9F789809A80AB80BC80CD80C0
:1017B000DE80EF80F88409851A852B853C854D8570
:1017C0005E856F85788989899A890E948B020E943B
:1017D000C301BCCE6091DB027091DC02072E000CCD
:1017E000880B990B0E94160E20E030E040EA5BE384
:1017F0000E94A20E2B013C016091E7027091E80269
:1018000080E090E00E94140E2FE632E143E053E3C3
:101810000E94A20E6B017C016091DD027091DE02DC
:10182000072E000C880B990B0E94160E20E030E06A
:1018300048EC57E30E94A20E4B015C016091E90263
:101840007091EA0280E090E00E94140E2DEC3CECD6
:101850004CE454E30E94A20E6093ED027093EE02FA
:101860008093EF029093F0026091EB027091EC0292
:1018700080E090E00E94140E6093F1027093F202F7
:101880008093F3029093F4026091E3027091E4027A
:10189000072E000C880B990B0E94160E2AE037EDDC
:1018A00043EA5DE30E94A20E6093F5027093F60294
:1018B0008093F7029093F8026091E5027091E6023E
:1018C000072E000C880B990B0E94160E20E030E0CA
:1018D00040E253E40E946C0D6093F9027093FA02A7
:1018E0008093FB029093FC026091D7027091D80222
:1018F000072E000C880B990B0E94160E6093FD02B8
:101900007093FE028093FF02909300036091D902CE
:101910007091DA02072E000C880B990B0E94160EAC
:1019200020E030E040EA5CE30E94A20E60930103F5
:101930007093020380930303909304036091DF028A
:101940007091E002072E000C880B990B0E94160E76
:1019500020E030E048E45AE30E94A20E60930503C1
:1019600070930603809307039093080320E030E010
:1019700040E057E4C701B6010E94A20E609309033C
:1019800070930A0380930B0390930C03A7019601B5
:10199000C301B2010E94A20E60930D0370930E0367
:1019A00080930F0390931003A5019401C701B60122
:1019B0000E94A20E6093110370931203809313038D
:1019C000909314038CEE91E5A7E1B0E480931503A6
:1019D00090931603A0931703B093180380E394E346
:1019E000AEE7BFE38093190390931A03A0931B0300
:1019F000B0931C0380E097E5A4E9B6E380931D0350
:101A000090931E03A0931F03B093200382CDCF9326
:101A1000DF93E4E1F2E01382128288EE93E0A0E02B
:101A2000B0E084839583A683B78324E031E03183DB
:101A3000208325EC30E03587248724EC30E037879D
:101A4000268720EC30E0318B208B21EC30E0338B8B
:101A5000228B22EC30E0358B248B26EC30E0378B68
:101A6000268B118E128E138E148EE1EBF2E0138210
:101A7000128284839583A683B78386E191E0918364
:101A80008083CDEBD2E01B861A86198218821E8ACB
:101A90001F8A188E198E88EC90E09F838E838DE0CC
:101AA00090E09D878C878CE090E09F878E8761E037
:101AB0008DE00E94A10361E08E850E94A103198A36
:101AC000188A1B8A1A8A1D8A1C8A82E090E09987EC
:101AD0008887DF91CF9108950E94800D0C94680E45
:101AE0000E94610E58F00E945A0E40F029F45F3FA8
:101AF00029F00C94510E51110C949C0E0C94570E1D
:101B00000E94790E68F39923B1F3552391F3951B45
:101B1000550BBB27AA2762177307840738F09F5F0E
:101B20005F4F220F331F441FAA1FA9F335D00E2E7B
:101B30003AF0E0E832D091505040E695001CCAF7E8
:101B40002BD0FE2F29D0660F771F881FBB1F2617AB
:101B500037074807AB07B0E809F0BB0B802DBF0182
:101B6000FF2793585F4F3AF09E3F510578F00C9451
:101B7000510E0C949C0E5F3FE4F3983ED4F386958F
:101B800077956795B795F7959F5FC9F7880F911D72
:101B90009695879597F90895E1E0660F771F881F5E
:101BA000BB1F621773078407BA0720F0621B730B11
:101BB000840BBA0BEE1F88F7E09508950E94E50D9F
:101BC0006894B1110C949C0E08950E94810E88F0C7
:101BD0009F5798F0B92F9927B751B0F0E1F0660FF1
:101BE000771F881F991F1AF0BA95C9F714C0B13032
:101BF00091F00E949B0EB1E008950C949B0E672F0C
:101C0000782F8827B85F39F0B93FCCF38695779560
:101C10006795B395D9F73EF4909580957095619549
:101C20007F4F8F4F9F4F0895E89409C097FB3EF474
:101C300090958095709561957F4F8F4F9F4F992319
:101C4000A9F0F92F96E9BB279395F6958795779597
:101C50006795B795F111F8CFFAF4BB0F11F460FF57
:101C60001BC06F5F7F4F8F4F9F4F16C0882311F0AF
:101C700096E911C0772321F09EE8872F762F05C0C3
:101C8000662371F096E8862F70E060E02AF09A955E
:101C9000660F771F881FDAF7880F9695879597F953
:101CA000089597F99F6780E870E060E008959FEFDE
:101CB00080EC089500240A941616170618060906E3
:101CC000089500240A9412161306140605060895B2
:101CD000092E0394000C11F4882352F0BB0F40F43A
:101CE000BF2B11F460FF04C06F5F7F4F8F4F9F4F7A
:101CF000089557FD9058440F551F59F05F3F71F0FC
:101D00004795880F97FB991F61F09F3F79F0879562
:101D10000895121613061406551FF2CF4695F1DFEB
:101D200008C0161617061806991FF1CF869571057B
:101D3000610508940895E894BB2766277727CB01AF
:101D400097F908950E94B50E0C94680E0E945A0EE1
:101D500038F00E94610E20F0952311F00C94510E82
:101D60000C94570E11240C949C0E0E94790E70F363
:101D7000959FC1F3950F50E0551F629FF001729F30
:101D8000BB27F00DB11D639FAA27F00DB11DAA1F3F
:101D9000649F6627B00DA11D661F829F2227B00D8C
:101DA000A11D621F739FB00DA11D621F839FA00D17
:101DB000611D221F749F3327A00D611D231F849F67
:101DC000600D211D822F762F6A2F11249F575040BE
:101DD0009AF0F1F088234AF0EE0FFF1FBB1F661F39
:101DE000771F881F91505040A9F79E3F510580F002
:101DF0000C94510E0C949C0E5F3FE4F3983ED4F388
:101E0000869577956795B795F795E7959F5FC1F7A5
:101E1000FE2B880F911D9695879597F9089597FB4E
:101E2000072E16F4009407D077FD09D00E946A0FA0
:101E300007FC05D03EF4909581959F4F08957095CD
:101E400061957F4F0895A1E21A2EAA1BBB1BFD01CD
:101E50000DC0AA1FBB1FEE1FFF1FA217B307E40789
:101E6000F50720F0A21BB30BE40BF50B661F771FE1
:101E7000881F991F1A9469F76095709580959095C1
:101E80009B01AC01BD01CF010895052E97FB1EF407
:101E900000940E945C0F57FD07D00E94230F07FC9F
:101EA00003D04EF40C945C0F5095409530952195DD
:101EB0003F4F4F4F5F4F0895909580957095619576
:101EC0007F4F8F4F9F4F0895EE0FFF1F0590F491A6
:101ED000E02D0994AA1BBB1B51E107C0AA1FBB1F21
:101EE000A617B70710F0A61BB70B881F991F5A95A6
:101EF000A9F780959095BC01CD01089581E090E00F
:0A1F0000F8940C94830FF894FFCFBF
:101F0A00000000005401C100EB00A1011C01FA000D
:101F1A000E010000000058022B028802FF01230272
:101F2A000F020002202D20003A20000D0A00524123
:101F3A004953494E47004C494D5F48495400524560
:101F4A0041445900504F533100504F533200504FC3
:081F5A00533300504F533400D3
:00000001FF
